{
  "_format": "hh-sol-artifact-1",
  "contractName": "NFTMarketplace",
  "sourceName": "contracts/NFTMarketplace.sol",
  "abi": [
    {
      "inputs": [
        {
          "internalType": "string",
          "name": "_company",
          "type": "string"
        },
        {
          "internalType": "string",
          "name": "_symbol",
          "type": "string"
        },
        {
          "internalType": "uint256",
          "name": "_royalityFee",
          "type": "uint256"
        }
      ],
      "stateMutability": "nonpayable",
      "type": "constructor"
    },
    {
      "anonymous": false,
      "inputs": [
        {
          "indexed": true,
          "internalType": "address",
          "name": "owner",
          "type": "address"
        },
        {
          "indexed": true,
          "internalType": "address",
          "name": "approved",
          "type": "address"
        },
        {
          "indexed": true,
          "internalType": "uint256",
          "name": "tokenId",
          "type": "uint256"
        }
      ],
      "name": "Approval",
      "type": "event"
    },
    {
      "anonymous": false,
      "inputs": [
        {
          "indexed": true,
          "internalType": "address",
          "name": "owner",
          "type": "address"
        },
        {
          "indexed": true,
          "internalType": "address",
          "name": "operator",
          "type": "address"
        },
        {
          "indexed": false,
          "internalType": "bool",
          "name": "approved",
          "type": "bool"
        }
      ],
      "name": "ApprovalForAll",
      "type": "event"
    },
    {
      "anonymous": false,
      "inputs": [
        {
          "indexed": true,
          "internalType": "address",
          "name": "previousOwner",
          "type": "address"
        },
        {
          "indexed": true,
          "internalType": "address",
          "name": "newOwner",
          "type": "address"
        }
      ],
      "name": "OwnershipTransferred",
      "type": "event"
    },
    {
      "anonymous": false,
      "inputs": [
        {
          "indexed": false,
          "internalType": "uint256",
          "name": "tokenId",
          "type": "uint256"
        },
        {
          "indexed": true,
          "internalType": "address",
          "name": "owner",
          "type": "address"
        },
        {
          "indexed": false,
          "internalType": "uint256",
          "name": "cost",
          "type": "uint256"
        },
        {
          "indexed": false,
          "internalType": "string",
          "name": "fileURI",
          "type": "string"
        },
        {
          "indexed": false,
          "internalType": "uint256",
          "name": "timestamp",
          "type": "uint256"
        }
      ],
      "name": "Sale",
      "type": "event"
    },
    {
      "anonymous": false,
      "inputs": [
        {
          "indexed": true,
          "internalType": "address",
          "name": "from",
          "type": "address"
        },
        {
          "indexed": true,
          "internalType": "address",
          "name": "to",
          "type": "address"
        },
        {
          "indexed": true,
          "internalType": "uint256",
          "name": "tokenId",
          "type": "uint256"
        }
      ],
      "name": "Transfer",
      "type": "event"
    },
    {
      "inputs": [
        {
          "internalType": "address",
          "name": "to",
          "type": "address"
        },
        {
          "internalType": "uint256",
          "name": "tokenId",
          "type": "uint256"
        }
      ],
      "name": "approve",
      "outputs": [],
      "stateMutability": "nonpayable",
      "type": "function"
    },
    {
      "inputs": [
        {
          "internalType": "address",
          "name": "owner",
          "type": "address"
        }
      ],
      "name": "balanceOf",
      "outputs": [
        {
          "internalType": "uint256",
          "name": "",
          "type": "uint256"
        }
      ],
      "stateMutability": "view",
      "type": "function"
    },
    {
      "inputs": [
        {
          "internalType": "uint256",
          "name": "_id",
          "type": "uint256"
        }
      ],
      "name": "buyNFT",
      "outputs": [],
      "stateMutability": "payable",
      "type": "function"
    },
    {
      "inputs": [
        {
          "internalType": "uint256",
          "name": "_id",
          "type": "uint256"
        },
        {
          "internalType": "uint256",
          "name": "newPrice",
          "type": "uint256"
        }
      ],
      "name": "changePrice",
      "outputs": [
        {
          "internalType": "bool",
          "name": "",
          "type": "bool"
        }
      ],
      "stateMutability": "nonpayable",
      "type": "function"
    },
    {
      "inputs": [],
      "name": "cost",
      "outputs": [
        {
          "internalType": "uint256",
          "name": "",
          "type": "uint256"
        }
      ],
      "stateMutability": "view",
      "type": "function"
    },
    {
      "inputs": [],
      "name": "currentTokenID",
      "outputs": [
        {
          "internalType": "uint256",
          "name": "",
          "type": "uint256"
        }
      ],
      "stateMutability": "view",
      "type": "function"
    },
    {
      "inputs": [],
      "name": "getAllNFTs",
      "outputs": [
        {
          "components": [
            {
              "internalType": "uint256",
              "name": "tokenId",
              "type": "uint256"
            },
            {
              "internalType": "address",
              "name": "nftOwner",
              "type": "address"
            },
            {
              "internalType": "string",
              "name": "title",
              "type": "string"
            },
            {
              "internalType": "string",
              "name": "category",
              "type": "string"
            },
            {
              "internalType": "string",
              "name": "description",
              "type": "string"
            },
            {
              "internalType": "uint256",
              "name": "price",
              "type": "uint256"
            },
            {
              "internalType": "string",
              "name": "fileURI",
              "type": "string"
            },
            {
              "internalType": "uint256",
              "name": "timestamp",
              "type": "uint256"
            },
            {
              "internalType": "bool",
              "name": "isOnSale",
              "type": "bool"
            }
          ],
          "internalType": "struct NFTMarketplace.NFTItem[]",
          "name": "",
          "type": "tuple[]"
        }
      ],
      "stateMutability": "view",
      "type": "function"
    },
    {
      "inputs": [],
      "name": "getAllTransactions",
      "outputs": [
        {
          "components": [
            {
              "internalType": "uint256",
              "name": "transactionID",
              "type": "uint256"
            },
            {
              "internalType": "address",
              "name": "from",
              "type": "address"
            },
            {
              "internalType": "address",
              "name": "to",
              "type": "address"
            },
            {
              "internalType": "string",
              "name": "nftTitle",
              "type": "string"
            },
            {
              "internalType": "uint256",
              "name": "transactionPrice",
              "type": "uint256"
            },
            {
              "internalType": "uint256",
              "name": "timestamp",
              "type": "uint256"
            }
          ],
          "internalType": "struct NFTMarketplace.Transaction[]",
          "name": "",
          "type": "tuple[]"
        }
      ],
      "stateMutability": "view",
      "type": "function"
    },
    {
      "inputs": [
        {
          "internalType": "uint256",
          "name": "tokenId",
          "type": "uint256"
        }
      ],
      "name": "getApproved",
      "outputs": [
        {
          "internalType": "address",
          "name": "",
          "type": "address"
        }
      ],
      "stateMutability": "view",
      "type": "function"
    },
    {
      "inputs": [
        {
          "internalType": "uint256",
          "name": "",
          "type": "uint256"
        }
      ],
      "name": "holderOf",
      "outputs": [
        {
          "internalType": "address",
          "name": "",
          "type": "address"
        }
      ],
      "stateMutability": "view",
      "type": "function"
    },
    {
      "inputs": [
        {
          "internalType": "address",
          "name": "owner",
          "type": "address"
        },
        {
          "internalType": "address",
          "name": "operator",
          "type": "address"
        }
      ],
      "name": "isApprovedForAll",
      "outputs": [
        {
          "internalType": "bool",
          "name": "",
          "type": "bool"
        }
      ],
      "stateMutability": "view",
      "type": "function"
    },
    {
      "inputs": [
        {
          "internalType": "string",
          "name": "_title",
          "type": "string"
        },
        {
          "internalType": "string",
          "name": "_category",
          "type": "string"
        },
        {
          "internalType": "string",
          "name": "_description",
          "type": "string"
        },
        {
          "internalType": "string",
          "name": "_fileURI",
          "type": "string"
        },
        {
          "internalType": "uint256",
          "name": "_price",
          "type": "uint256"
        }
      ],
      "name": "mintNFT",
      "outputs": [],
      "stateMutability": "payable",
      "type": "function"
    },
    {
      "inputs": [],
      "name": "name",
      "outputs": [
        {
          "internalType": "string",
          "name": "",
          "type": "string"
        }
      ],
      "stateMutability": "view",
      "type": "function"
    },
    {
      "inputs": [],
      "name": "owner",
      "outputs": [
        {
          "internalType": "address",
          "name": "",
          "type": "address"
        }
      ],
      "stateMutability": "view",
      "type": "function"
    },
    {
      "inputs": [
        {
          "internalType": "uint256",
          "name": "tokenId",
          "type": "uint256"
        }
      ],
      "name": "ownerOf",
      "outputs": [
        {
          "internalType": "address",
          "name": "",
          "type": "address"
        }
      ],
      "stateMutability": "view",
      "type": "function"
    },
    {
      "inputs": [],
      "name": "renounceOwnership",
      "outputs": [],
      "stateMutability": "nonpayable",
      "type": "function"
    },
    {
      "inputs": [],
      "name": "royalityFee",
      "outputs": [
        {
          "internalType": "uint256",
          "name": "",
          "type": "uint256"
        }
      ],
      "stateMutability": "view",
      "type": "function"
    },
    {
      "inputs": [
        {
          "internalType": "address",
          "name": "from",
          "type": "address"
        },
        {
          "internalType": "address",
          "name": "to",
          "type": "address"
        },
        {
          "internalType": "uint256",
          "name": "tokenId",
          "type": "uint256"
        }
      ],
      "name": "safeTransferFrom",
      "outputs": [],
      "stateMutability": "nonpayable",
      "type": "function"
    },
    {
      "inputs": [
        {
          "internalType": "address",
          "name": "from",
          "type": "address"
        },
        {
          "internalType": "address",
          "name": "to",
          "type": "address"
        },
        {
          "internalType": "uint256",
          "name": "tokenId",
          "type": "uint256"
        },
        {
          "internalType": "bytes",
          "name": "data",
          "type": "bytes"
        }
      ],
      "name": "safeTransferFrom",
      "outputs": [],
      "stateMutability": "nonpayable",
      "type": "function"
    },
    {
      "inputs": [
        {
          "internalType": "address",
          "name": "operator",
          "type": "address"
        },
        {
          "internalType": "bool",
          "name": "approved",
          "type": "bool"
        }
      ],
      "name": "setApprovalForAll",
      "outputs": [],
      "stateMutability": "nonpayable",
      "type": "function"
    },
    {
      "inputs": [],
      "name": "siteOwner",
      "outputs": [
        {
          "internalType": "address",
          "name": "",
          "type": "address"
        }
      ],
      "stateMutability": "view",
      "type": "function"
    },
    {
      "inputs": [
        {
          "internalType": "bytes4",
          "name": "interfaceId",
          "type": "bytes4"
        }
      ],
      "name": "supportsInterface",
      "outputs": [
        {
          "internalType": "bool",
          "name": "",
          "type": "bool"
        }
      ],
      "stateMutability": "view",
      "type": "function"
    },
    {
      "inputs": [],
      "name": "symbol",
      "outputs": [
        {
          "internalType": "string",
          "name": "",
          "type": "string"
        }
      ],
      "stateMutability": "view",
      "type": "function"
    },
    {
      "inputs": [
        {
          "internalType": "uint256",
          "name": "tokenId",
          "type": "uint256"
        }
      ],
      "name": "tokenURI",
      "outputs": [
        {
          "internalType": "string",
          "name": "",
          "type": "string"
        }
      ],
      "stateMutability": "view",
      "type": "function"
    },
    {
      "inputs": [],
      "name": "totalTransaction",
      "outputs": [
        {
          "internalType": "uint256",
          "name": "",
          "type": "uint256"
        }
      ],
      "stateMutability": "view",
      "type": "function"
    },
    {
      "inputs": [
        {
          "internalType": "address",
          "name": "from",
          "type": "address"
        },
        {
          "internalType": "address",
          "name": "to",
          "type": "address"
        },
        {
          "internalType": "uint256",
          "name": "tokenId",
          "type": "uint256"
        }
      ],
      "name": "transferFrom",
      "outputs": [],
      "stateMutability": "nonpayable",
      "type": "function"
    },
    {
      "inputs": [
        {
          "internalType": "address",
          "name": "newOwner",
          "type": "address"
        }
      ],
      "name": "transferOwnership",
      "outputs": [],
      "stateMutability": "nonpayable",
      "type": "function"
    }
  ],
  "bytecode": "0x60806040526000600e55662386f26fc10000600f553480156200002157600080fd5b50604051620055573803806200555783398181016040528101906200004791906200037c565b828281600090816200005a919062000657565b5080600190816200006c919062000657565b5050506200008f62000083620000e060201b60201c565b620000e860201b60201c565b80600c8190555033600b60006101000a81548173ffffffffffffffffffffffffffffffffffffffff021916908373ffffffffffffffffffffffffffffffffffffffff1602179055505050506200073e565b600033905090565b6000600760009054906101000a900473ffffffffffffffffffffffffffffffffffffffff16905081600760006101000a81548173ffffffffffffffffffffffffffffffffffffffff021916908373ffffffffffffffffffffffffffffffffffffffff1602179055508173ffffffffffffffffffffffffffffffffffffffff168173ffffffffffffffffffffffffffffffffffffffff167f8be0079c531659141344cd1fd0a4f28419497f9722a3daafe3b4186f6b6457e060405160405180910390a35050565b6000604051905090565b600080fd5b600080fd5b600080fd5b600080fd5b6000601f19601f8301169050919050565b7f4e487b7100000000000000000000000000000000000000000000000000000000600052604160045260246000fd5b6200021782620001cc565b810181811067ffffffffffffffff82111715620002395762000238620001dd565b5b80604052505050565b60006200024e620001ae565b90506200025c82826200020c565b919050565b600067ffffffffffffffff8211156200027f576200027e620001dd565b5b6200028a82620001cc565b9050602081019050919050565b60005b83811015620002b75780820151818401526020810190506200029a565b60008484015250505050565b6000620002da620002d48462000261565b62000242565b905082815260208101848484011115620002f957620002f8620001c7565b5b6200030684828562000297565b509392505050565b600082601f830112620003265762000325620001c2565b5b815162000338848260208601620002c3565b91505092915050565b6000819050919050565b620003568162000341565b81146200036257600080fd5b50565b60008151905062000376816200034b565b92915050565b600080600060608486031215620003985762000397620001b8565b5b600084015167ffffffffffffffff811115620003b957620003b8620001bd565b5b620003c7868287016200030e565b935050602084015167ffffffffffffffff811115620003eb57620003ea620001bd565b5b620003f9868287016200030e565b92505060406200040c8682870162000365565b9150509250925092565b600081519050919050565b7f4e487b7100000000000000000000000000000000000000000000000000000000600052602260045260246000fd5b600060028204905060018216806200046957607f821691505b6020821081036200047f576200047e62000421565b5b50919050565b60008190508160005260206000209050919050565b60006020601f8301049050919050565b600082821b905092915050565b600060088302620004e97fffffffffffffffffffffffffffffffffffffffffffffffffffffffffffffffff82620004aa565b620004f58683620004aa565b95508019841693508086168417925050509392505050565b6000819050919050565b600062000538620005326200052c8462000341565b6200050d565b62000341565b9050919050565b6000819050919050565b620005548362000517565b6200056c62000563826200053f565b848454620004b7565b825550505050565b600090565b6200058362000574565b6200059081848462000549565b505050565b5b81811015620005b857620005ac60008262000579565b60018101905062000596565b5050565b601f8211156200060757620005d18162000485565b620005dc846200049a565b81016020851015620005ec578190505b62000604620005fb856200049a565b83018262000595565b50505b505050565b600082821c905092915050565b60006200062c600019846008026200060c565b1980831691505092915050565b600062000647838362000619565b9150826002028217905092915050565b620006628262000416565b67ffffffffffffffff8111156200067e576200067d620001dd565b5b6200068a825462000450565b62000697828285620005bc565b600060209050601f831160018114620006cf5760008415620006ba578287015190505b620006c6858262000639565b86555062000736565b601f198416620006df8662000485565b60005b828110156200070957848901518255600182019150602085019450602081019050620006e2565b8683101562000729578489015162000725601f89168262000619565b8355505b6001600288020188555050505b505050505050565b614e09806200074e6000396000f3fe60806040526004361061019c5760003560e01c806370a08231116100ec578063b88d4fde1161008a578063dbacc23711610064578063dbacc237146105ae578063e0391b09146105eb578063e985e9c514610616578063f2fde38b146106535761019c565b8063b88d4fde1461051d578063bb62115e14610546578063c87b56dd146105715761019c565b806395d89b41116100c657806395d89b4114610470578063a060e7e61461049b578063a22cb465146104b7578063b3de019c146104e05761019c565b806370a08231146103f1578063715018a61461042e5780638da5cb5b146104455761019c565b806313faede611610159578063326bb4ad11610133578063326bb4ad1461034457806342842e0e1461036f57806351ed8288146103985780636352211e146103b45761019c565b806313faede6146102c557806323b872dd146102f057806327506f53146103195761019c565b80630147d79c146101a157806301ffc9a7146101cc57806306fdde0314610209578063081812fc14610234578063095ea7b3146102715780630d09d41b1461029a575b600080fd5b3480156101ad57600080fd5b506101b661067c565b6040516101c3919061306a565b60405180910390f35b3480156101d857600080fd5b506101f360048036038101906101ee91906130f1565b610682565b6040516102009190613139565b60405180910390f35b34801561021557600080fd5b5061021e610764565b60405161022b91906131e4565b60405180910390f35b34801561024057600080fd5b5061025b60048036038101906102569190613232565b6107f6565b60405161026891906132a0565b60405180910390f35b34801561027d57600080fd5b50610298600480360381019061029391906132e7565b61083c565b005b3480156102a657600080fd5b506102af610953565b6040516102bc91906132a0565b60405180910390f35b3480156102d157600080fd5b506102da610979565b6040516102e7919061306a565b60405180910390f35b3480156102fc57600080fd5b5061031760048036038101906103129190613327565b61097f565b005b34801561032557600080fd5b5061032e6109df565b60405161033b919061352d565b60405180910390f35b34801561035057600080fd5b50610359610b9a565b604051610366919061306a565b60405180910390f35b34801561037b57600080fd5b5061039660048036038101906103919190613327565b610ba0565b005b6103b260048036038101906103ad9190613232565b610bc0565b005b3480156103c057600080fd5b506103db60048036038101906103d69190613232565b61116c565b6040516103e891906132a0565b60405180910390f35b3480156103fd57600080fd5b506104186004803603810190610413919061354f565b6111f2565b604051610425919061306a565b60405180910390f35b34801561043a57600080fd5b506104436112a9565b005b34801561045157600080fd5b5061045a6112bd565b60405161046791906132a0565b60405180910390f35b34801561047c57600080fd5b506104856112e7565b60405161049291906131e4565b60405180910390f35b6104b560048036038101906104b091906136b1565b611379565b005b3480156104c357600080fd5b506104de60048036038101906104d991906137c8565b6116fb565b005b3480156104ec57600080fd5b5061050760048036038101906105029190613808565b611711565b6040516105149190613139565b60405180910390f35b34801561052957600080fd5b50610544600480360381019061053f91906138e9565b61187a565b005b34801561055257600080fd5b5061055b6118dc565b604051610568919061306a565b60405180910390f35b34801561057d57600080fd5b5061059860048036038101906105939190613232565b6118e2565b6040516105a591906131e4565b60405180910390f35b3480156105ba57600080fd5b506105d560048036038101906105d09190613232565b6119f4565b6040516105e291906132a0565b60405180910390f35b3480156105f757600080fd5b50610600611a27565b60405161060d9190613b17565b60405180910390f35b34801561062257600080fd5b5061063d60048036038101906106389190613b39565b611d5e565b60405161064a9190613139565b60405180910390f35b34801561065f57600080fd5b5061067a6004803603810190610675919061354f565b611df2565b005b600e5481565b60007f80ac58cd000000000000000000000000000000000000000000000000000000007bffffffffffffffffffffffffffffffffffffffffffffffffffffffff1916827bffffffffffffffffffffffffffffffffffffffffffffffffffffffff1916148061074d57507f5b5e139f000000000000000000000000000000000000000000000000000000007bffffffffffffffffffffffffffffffffffffffffffffffffffffffff1916827bffffffffffffffffffffffffffffffffffffffffffffffffffffffff1916145b8061075d575061075c82611e75565b5b9050919050565b60606000805461077390613ba8565b80601f016020809104026020016040519081016040528092919081815260200182805461079f90613ba8565b80156107ec5780601f106107c1576101008083540402835291602001916107ec565b820191906000526020600020905b8154815290600101906020018083116107cf57829003601f168201915b5050505050905090565b600061080182611edf565b6004600083815260200190815260200160002060009054906101000a900473ffffffffffffffffffffffffffffffffffffffff169050919050565b60006108478261116c565b90508073ffffffffffffffffffffffffffffffffffffffff168373ffffffffffffffffffffffffffffffffffffffff16036108b7576040517f08c379a00000000000000000000000000000000000000000000000000000000081526004016108ae90613c4b565b60405180910390fd5b8073ffffffffffffffffffffffffffffffffffffffff166108d6611f2a565b73ffffffffffffffffffffffffffffffffffffffff1614806109055750610904816108ff611f2a565b611d5e565b5b610944576040517f08c379a000000000000000000000000000000000000000000000000000000000815260040161093b90613cdd565b60405180910390fd5b61094e8383611f32565b505050565b600b60009054906101000a900473ffffffffffffffffffffffffffffffffffffffff1681565b600f5481565b61099061098a611f2a565b82611feb565b6109cf576040517f08c379a00000000000000000000000000000000000000000000000000000000081526004016109c690613d6f565b60405180910390fd5b6109da838383612080565b505050565b60606010805480602002602001604051908101604052809291908181526020016000905b82821015610b9157838290600052602060002090600602016040518060c0016040529081600082015481526020016001820160009054906101000a900473ffffffffffffffffffffffffffffffffffffffff1673ffffffffffffffffffffffffffffffffffffffff1673ffffffffffffffffffffffffffffffffffffffff1681526020016002820160009054906101000a900473ffffffffffffffffffffffffffffffffffffffff1673ffffffffffffffffffffffffffffffffffffffff1673ffffffffffffffffffffffffffffffffffffffff168152602001600382018054610aec90613ba8565b80601f0160208091040260200160405190810160405280929190818152602001828054610b1890613ba8565b8015610b655780601f10610b3a57610100808354040283529160200191610b65565b820191906000526020600020905b815481529060010190602001808311610b4857829003601f168201915b505050505081526020016004820154815260200160058201548152505081526020019060010190610a03565b50505050905090565b600c5481565b610bbb8383836040518060200160405280600081525061187a565b505050565b60118181548110610bd457610bd3613d8f565b5b906000526020600020906009020160050154341015610c28576040517f08c379a0000000000000000000000000000000000000000000000000000000008152600401610c1f90613e0a565b60405180910390fd5b60118181548110610c3c57610c3b613d8f565b5b906000526020600020906009020160010160009054906101000a900473ffffffffffffffffffffffffffffffffffffffff1673ffffffffffffffffffffffffffffffffffffffff163373ffffffffffffffffffffffffffffffffffffffff1603610cdb576040517f08c379a0000000000000000000000000000000000000000000000000000000008152600401610cd290613e76565b60405180910390fd5b6001151560118281548110610cf357610cf2613d8f565b5b906000526020600020906009020160080160009054906101000a900460ff16151514610d54576040517f08c379a0000000000000000000000000000000000000000000000000000000008152600401610d4b90613f08565b60405180910390fd5b60006064600c5434610d669190613f57565b610d709190613fc8565b9050610d9e600b60009054906101000a900473ffffffffffffffffffffffffffffffffffffffff1682612379565b610df860118381548110610db557610db4613d8f565b5b906000526020600020906009020160010160009054906101000a900473ffffffffffffffffffffffffffffffffffffffff168234610df39190613ff9565b612379565b600e6000815480929190610e0b9061402d565b919050555060106040518060c00160405280600e5481526020013373ffffffffffffffffffffffffffffffffffffffff16815260200160118581548110610e5557610e54613d8f565b5b906000526020600020906009020160010160009054906101000a900473ffffffffffffffffffffffffffffffffffffffff1673ffffffffffffffffffffffffffffffffffffffff16815260200160118581548110610eb657610eb5613d8f565b5b90600052602060002090600902016002018054610ed290613ba8565b80601f0160208091040260200160405190810160405280929190818152602001828054610efe90613ba8565b8015610f4b5780601f10610f2057610100808354040283529160200191610f4b565b820191906000526020600020905b815481529060010190602001808311610f2e57829003601f168201915b505050505081526020013481526020014281525090806001815401808255809150506001900390600052602060002090600602016000909190919091506000820151816000015560208201518160010160006101000a81548173ffffffffffffffffffffffffffffffffffffffff021916908373ffffffffffffffffffffffffffffffffffffffff16021790555060408201518160020160006101000a81548173ffffffffffffffffffffffffffffffffffffffff021916908373ffffffffffffffffffffffffffffffffffffffff16021790555060608201518160030190816110359190614221565b506080820151816004015560a0820151816005015550503373ffffffffffffffffffffffffffffffffffffffff167fb9508407a6eccb191d8da3286f4173697cf95604e9ea192fe5ab7c862b5221f6600e54346011868154811061109c5761109b613d8f565b5b9060005260206000209060090201600601426040516110be9493929190614377565b60405180910390a233601183815481106110db576110da613d8f565b5b906000526020600020906009020160010160006101000a81548173ffffffffffffffffffffffffffffffffffffffff021916908373ffffffffffffffffffffffffffffffffffffffff1602179055506000601183815481106111405761113f613d8f565b5b906000526020600020906009020160080160006101000a81548160ff0219169083151502179055505050565b6000806111788361242a565b9050600073ffffffffffffffffffffffffffffffffffffffff168173ffffffffffffffffffffffffffffffffffffffff16036111e9576040517f08c379a00000000000000000000000000000000000000000000000000000000081526004016111e09061440f565b60405180910390fd5b80915050919050565b60008073ffffffffffffffffffffffffffffffffffffffff168273ffffffffffffffffffffffffffffffffffffffff1603611262576040517f08c379a0000000000000000000000000000000000000000000000000000000008152600401611259906144a1565b60405180910390fd5b600360008373ffffffffffffffffffffffffffffffffffffffff1673ffffffffffffffffffffffffffffffffffffffff168152602001908152602001600020549050919050565b6112b1612467565b6112bb60006124e5565b565b6000600760009054906101000a900473ffffffffffffffffffffffffffffffffffffffff16905090565b6060600180546112f690613ba8565b80601f016020809104026020016040519081016040528092919081815260200182805461132290613ba8565b801561136f5780601f106113445761010080835404028352916020019161136f565b820191906000526020600020905b81548152906001019060200180831161135257829003601f168201915b5050505050905090565b600f543410156113be576040517f08c379a00000000000000000000000000000000000000000000000000000000081526004016113b59061450d565b60405180910390fd5b600b60009054906101000a900473ffffffffffffffffffffffffffffffffffffffff1673ffffffffffffffffffffffffffffffffffffffff163373ffffffffffffffffffffffffffffffffffffffff160361144e576040517f08c379a00000000000000000000000000000000000000000000000000000000081526004016114459061459f565b60405180910390fd5b61147a600b60009054906101000a900473ffffffffffffffffffffffffffffffffffffffff1634612379565b61148460086125ab565b61148e60086125c1565b600d819055506011604051806101200160405280600d5481526020013373ffffffffffffffffffffffffffffffffffffffff1681526020018781526020018681526020018581526020018381526020018481526020014281526020016001151581525090806001815401808255809150506001900390600052602060002090600902016000909190919091506000820151816000015560208201518160010160006101000a81548173ffffffffffffffffffffffffffffffffffffffff021916908373ffffffffffffffffffffffffffffffffffffffff16021790555060408201518160020190816115809190614221565b5060608201518160030190816115969190614221565b5060808201518160040190816115ac9190614221565b5060a0820151816005015560c08201518160060190816115cc9190614221565b5060e082015181600701556101008201518160080160006101000a81548160ff02191690831515021790555050503373ffffffffffffffffffffffffffffffffffffffff167fb9508407a6eccb191d8da3286f4173697cf95604e9ea192fe5ab7c862b5221f6600d5434854260405161164894939291906145bf565b60405180910390a261165c33600d546125cf565b611668600d54836125ed565b600160098360405161167a9190614647565b908152602001604051809103902060006101000a81548160ff021916908360ff16021790555033600a6000600d54815260200190815260200160002060006101000a81548173ffffffffffffffffffffffffffffffffffffffff021916908373ffffffffffffffffffffffffffffffffffffffff1602179055505050505050565b61170d611706611f2a565b838361265a565b5050565b6000808211611755576040517f08c379a000000000000000000000000000000000000000000000000000000000815260040161174c906146aa565b60405180910390fd5b6011838154811061176957611768613d8f565b5b906000526020600020906009020160010160009054906101000a900473ffffffffffffffffffffffffffffffffffffffff1673ffffffffffffffffffffffffffffffffffffffff163373ffffffffffffffffffffffffffffffffffffffff1614611808576040517f08c379a00000000000000000000000000000000000000000000000000000000081526004016117ff9061473c565b60405180910390fd5b816011848154811061181d5761181c613d8f565b5b90600052602060002090600902016005018190555060016011848154811061184857611847613d8f565b5b906000526020600020906009020160080160006101000a81548160ff0219169083151502179055506001905092915050565b61188b611885611f2a565b83611feb565b6118ca576040517f08c379a00000000000000000000000000000000000000000000000000000000081526004016118c190613d6f565b60405180910390fd5b6118d6848484846127c6565b50505050565b600d5481565b60606118ed82611edf565b600060066000848152602001908152602001600020805461190d90613ba8565b80601f016020809104026020016040519081016040528092919081815260200182805461193990613ba8565b80156119865780601f1061195b57610100808354040283529160200191611986565b820191906000526020600020905b81548152906001019060200180831161196957829003601f168201915b505050505090506000611997612822565b905060008151036119ac5781925050506119ef565b6000825111156119e15780826040516020016119c992919061475c565b604051602081830303815290604052925050506119ef565b6119ea84612839565b925050505b919050565b600a6020528060005260406000206000915054906101000a900473ffffffffffffffffffffffffffffffffffffffff1681565b60606011805480602002602001604051908101604052809291908181526020016000905b82821015611d55578382906000526020600020906009020160405180610120016040529081600082015481526020016001820160009054906101000a900473ffffffffffffffffffffffffffffffffffffffff1673ffffffffffffffffffffffffffffffffffffffff1673ffffffffffffffffffffffffffffffffffffffff168152602001600282018054611adf90613ba8565b80601f0160208091040260200160405190810160405280929190818152602001828054611b0b90613ba8565b8015611b585780601f10611b2d57610100808354040283529160200191611b58565b820191906000526020600020905b815481529060010190602001808311611b3b57829003601f168201915b50505050508152602001600382018054611b7190613ba8565b80601f0160208091040260200160405190810160405280929190818152602001828054611b9d90613ba8565b8015611bea5780601f10611bbf57610100808354040283529160200191611bea565b820191906000526020600020905b815481529060010190602001808311611bcd57829003601f168201915b50505050508152602001600482018054611c0390613ba8565b80601f0160208091040260200160405190810160405280929190818152602001828054611c2f90613ba8565b8015611c7c5780601f10611c5157610100808354040283529160200191611c7c565b820191906000526020600020905b815481529060010190602001808311611c5f57829003601f168201915b5050505050815260200160058201548152602001600682018054611c9f90613ba8565b80601f0160208091040260200160405190810160405280929190818152602001828054611ccb90613ba8565b8015611d185780601f10611ced57610100808354040283529160200191611d18565b820191906000526020600020905b815481529060010190602001808311611cfb57829003601f168201915b50505050508152602001600782015481526020016008820160009054906101000a900460ff16151515158152505081526020019060010190611a4b565b50505050905090565b6000600560008473ffffffffffffffffffffffffffffffffffffffff1673ffffffffffffffffffffffffffffffffffffffff16815260200190815260200160002060008373ffffffffffffffffffffffffffffffffffffffff1673ffffffffffffffffffffffffffffffffffffffff16815260200190815260200160002060009054906101000a900460ff16905092915050565b611dfa612467565b600073ffffffffffffffffffffffffffffffffffffffff168173ffffffffffffffffffffffffffffffffffffffff1603611e69576040517f08c379a0000000000000000000000000000000000000000000000000000000008152600401611e60906147f2565b60405180910390fd5b611e72816124e5565b50565b60007f01ffc9a7000000000000000000000000000000000000000000000000000000007bffffffffffffffffffffffffffffffffffffffffffffffffffffffff1916827bffffffffffffffffffffffffffffffffffffffffffffffffffffffff1916149050919050565b611ee8816128a1565b611f27576040517f08c379a0000000000000000000000000000000000000000000000000000000008152600401611f1e9061440f565b60405180910390fd5b50565b600033905090565b816004600083815260200190815260200160002060006101000a81548173ffffffffffffffffffffffffffffffffffffffff021916908373ffffffffffffffffffffffffffffffffffffffff160217905550808273ffffffffffffffffffffffffffffffffffffffff16611fa58361116c565b73ffffffffffffffffffffffffffffffffffffffff167f8c5be1e5ebec7d5bd14f71427d1e84f3dd0314c0f7b2291e5b200ac8c7c3b92560405160405180910390a45050565b600080611ff78361116c565b90508073ffffffffffffffffffffffffffffffffffffffff168473ffffffffffffffffffffffffffffffffffffffff16148061203957506120388185611d5e565b5b8061207757508373ffffffffffffffffffffffffffffffffffffffff1661205f846107f6565b73ffffffffffffffffffffffffffffffffffffffff16145b91505092915050565b8273ffffffffffffffffffffffffffffffffffffffff166120a08261116c565b73ffffffffffffffffffffffffffffffffffffffff16146120f6576040517f08c379a00000000000000000000000000000000000000000000000000000000081526004016120ed90614884565b60405180910390fd5b600073ffffffffffffffffffffffffffffffffffffffff168273ffffffffffffffffffffffffffffffffffffffff1603612165576040517f08c379a000000000000000000000000000000000000000000000000000000000815260040161215c90614916565b60405180910390fd5b61217283838360016128e2565b8273ffffffffffffffffffffffffffffffffffffffff166121928261116c565b73ffffffffffffffffffffffffffffffffffffffff16146121e8576040517f08c379a00000000000000000000000000000000000000000000000000000000081526004016121df90614884565b60405180910390fd5b6004600082815260200190815260200160002060006101000a81549073ffffffffffffffffffffffffffffffffffffffff02191690556001600360008573ffffffffffffffffffffffffffffffffffffffff1673ffffffffffffffffffffffffffffffffffffffff168152602001908152602001600020600082825403925050819055506001600360008473ffffffffffffffffffffffffffffffffffffffff1673ffffffffffffffffffffffffffffffffffffffff16815260200190815260200160002060008282540192505081905550816002600083815260200190815260200160002060006101000a81548173ffffffffffffffffffffffffffffffffffffffff021916908373ffffffffffffffffffffffffffffffffffffffff160217905550808273ffffffffffffffffffffffffffffffffffffffff168473ffffffffffffffffffffffffffffffffffffffff167fddf252ad1be2c89b69c2b068fc378daa952ba7f163c4a11628f55a4df523b3ef60405160405180910390a46123748383836001612a08565b505050565b60008273ffffffffffffffffffffffffffffffffffffffff168260405161239f90614967565b60006040518083038185875af1925050503d80600081146123dc576040519150601f19603f3d011682016040523d82523d6000602084013e6123e1565b606091505b5050905080612425576040517f08c379a000000000000000000000000000000000000000000000000000000000815260040161241c906149c8565b60405180910390fd5b505050565b60006002600083815260200190815260200160002060009054906101000a900473ffffffffffffffffffffffffffffffffffffffff169050919050565b61246f611f2a565b73ffffffffffffffffffffffffffffffffffffffff1661248d6112bd565b73ffffffffffffffffffffffffffffffffffffffff16146124e3576040517f08c379a00000000000000000000000000000000000000000000000000000000081526004016124da90614a34565b60405180910390fd5b565b6000600760009054906101000a900473ffffffffffffffffffffffffffffffffffffffff16905081600760006101000a81548173ffffffffffffffffffffffffffffffffffffffff021916908373ffffffffffffffffffffffffffffffffffffffff1602179055508173ffffffffffffffffffffffffffffffffffffffff168173ffffffffffffffffffffffffffffffffffffffff167f8be0079c531659141344cd1fd0a4f28419497f9722a3daafe3b4186f6b6457e060405160405180910390a35050565b6001816000016000828254019250508190555050565b600081600001549050919050565b6125e9828260405180602001604052806000815250612a0e565b5050565b6125f6826128a1565b612635576040517f08c379a000000000000000000000000000000000000000000000000000000000815260040161262c90614ac6565b60405180910390fd5b806006600084815260200190815260200160002090816126559190614221565b505050565b8173ffffffffffffffffffffffffffffffffffffffff168373ffffffffffffffffffffffffffffffffffffffff16036126c8576040517f08c379a00000000000000000000000000000000000000000000000000000000081526004016126bf90614b32565b60405180910390fd5b80600560008573ffffffffffffffffffffffffffffffffffffffff1673ffffffffffffffffffffffffffffffffffffffff16815260200190815260200160002060008473ffffffffffffffffffffffffffffffffffffffff1673ffffffffffffffffffffffffffffffffffffffff16815260200190815260200160002060006101000a81548160ff0219169083151502179055508173ffffffffffffffffffffffffffffffffffffffff168373ffffffffffffffffffffffffffffffffffffffff167f17307eab39ab6107e8899845ad3d59bd9653f200f220920489ca2b5937696c31836040516127b99190613139565b60405180910390a3505050565b6127d1848484612080565b6127dd84848484612a69565b61281c576040517f08c379a000000000000000000000000000000000000000000000000000000000815260040161281390614bc4565b60405180910390fd5b50505050565b606060405180602001604052806000815250905090565b606061284482611edf565b600061284e612822565b9050600081511161286e5760405180602001604052806000815250612899565b8061287884612bf0565b60405160200161288992919061475c565b6040516020818303038152906040525b915050919050565b60008073ffffffffffffffffffffffffffffffffffffffff166128c38361242a565b73ffffffffffffffffffffffffffffffffffffffff1614159050919050565b6001811115612a0257600073ffffffffffffffffffffffffffffffffffffffff168473ffffffffffffffffffffffffffffffffffffffff16146129765780600360008673ffffffffffffffffffffffffffffffffffffffff1673ffffffffffffffffffffffffffffffffffffffff168152602001908152602001600020600082825461296e9190613ff9565b925050819055505b600073ffffffffffffffffffffffffffffffffffffffff168373ffffffffffffffffffffffffffffffffffffffff1614612a015780600360008573ffffffffffffffffffffffffffffffffffffffff1673ffffffffffffffffffffffffffffffffffffffff16815260200190815260200160002060008282546129f99190614be4565b925050819055505b5b50505050565b50505050565b612a188383612cbe565b612a256000848484612a69565b612a64576040517f08c379a0000000000000000000000000000000000000000000000000000000008152600401612a5b90614bc4565b60405180910390fd5b505050565b6000612a8a8473ffffffffffffffffffffffffffffffffffffffff16612edb565b15612be3578373ffffffffffffffffffffffffffffffffffffffff1663150b7a02612ab3611f2a565b8786866040518563ffffffff1660e01b8152600401612ad59493929190614c6d565b6020604051808303816000875af1925050508015612b1157506040513d601f19601f82011682018060405250810190612b0e9190614cce565b60015b612b93573d8060008114612b41576040519150601f19603f3d011682016040523d82523d6000602084013e612b46565b606091505b506000815103612b8b576040517f08c379a0000000000000000000000000000000000000000000000000000000008152600401612b8290614bc4565b60405180910390fd5b805181602001fd5b63150b7a0260e01b7bffffffffffffffffffffffffffffffffffffffffffffffffffffffff1916817bffffffffffffffffffffffffffffffffffffffffffffffffffffffff191614915050612be8565b600190505b949350505050565b606060006001612bff84612efe565b01905060008167ffffffffffffffff811115612c1e57612c1d613586565b5b6040519080825280601f01601f191660200182016040528015612c505781602001600182028036833780820191505090505b509050600082602001820190505b600115612cb3578080600190039150507f3031323334353637383961626364656600000000000000000000000000000000600a86061a8153600a8581612ca757612ca6613f99565b5b04945060008503612c5e575b819350505050919050565b600073ffffffffffffffffffffffffffffffffffffffff168273ffffffffffffffffffffffffffffffffffffffff1603612d2d576040517f08c379a0000000000000000000000000000000000000000000000000000000008152600401612d2490614d47565b60405180910390fd5b612d36816128a1565b15612d76576040517f08c379a0000000000000000000000000000000000000000000000000000000008152600401612d6d90614db3565b60405180910390fd5b612d846000838360016128e2565b612d8d816128a1565b15612dcd576040517f08c379a0000000000000000000000000000000000000000000000000000000008152600401612dc490614db3565b60405180910390fd5b6001600360008473ffffffffffffffffffffffffffffffffffffffff1673ffffffffffffffffffffffffffffffffffffffff16815260200190815260200160002060008282540192505081905550816002600083815260200190815260200160002060006101000a81548173ffffffffffffffffffffffffffffffffffffffff021916908373ffffffffffffffffffffffffffffffffffffffff160217905550808273ffffffffffffffffffffffffffffffffffffffff16600073ffffffffffffffffffffffffffffffffffffffff167fddf252ad1be2c89b69c2b068fc378daa952ba7f163c4a11628f55a4df523b3ef60405160405180910390a4612ed7600083836001612a08565b5050565b6000808273ffffffffffffffffffffffffffffffffffffffff163b119050919050565b600080600090507a184f03e93ff9f4daa797ed6e38ed64bf6a1f0100000000000000008310612f5c577a184f03e93ff9f4daa797ed6e38ed64bf6a1f0100000000000000008381612f5257612f51613f99565b5b0492506040810190505b6d04ee2d6d415b85acef81000000008310612f99576d04ee2d6d415b85acef81000000008381612f8f57612f8e613f99565b5b0492506020810190505b662386f26fc100008310612fc857662386f26fc100008381612fbe57612fbd613f99565b5b0492506010810190505b6305f5e1008310612ff1576305f5e1008381612fe757612fe6613f99565b5b0492506008810190505b612710831061301657612710838161300c5761300b613f99565b5b0492506004810190505b60648310613039576064838161302f5761302e613f99565b5b0492506002810190505b600a8310613048576001810190505b80915050919050565b6000819050919050565b61306481613051565b82525050565b600060208201905061307f600083018461305b565b92915050565b6000604051905090565b600080fd5b600080fd5b60007fffffffff0000000000000000000000000000000000000000000000000000000082169050919050565b6130ce81613099565b81146130d957600080fd5b50565b6000813590506130eb816130c5565b92915050565b6000602082840312156131075761310661308f565b5b6000613115848285016130dc565b91505092915050565b60008115159050919050565b6131338161311e565b82525050565b600060208201905061314e600083018461312a565b92915050565b600081519050919050565b600082825260208201905092915050565b60005b8381101561318e578082015181840152602081019050613173565b60008484015250505050565b6000601f19601f8301169050919050565b60006131b682613154565b6131c0818561315f565b93506131d0818560208601613170565b6131d98161319a565b840191505092915050565b600060208201905081810360008301526131fe81846131ab565b905092915050565b61320f81613051565b811461321a57600080fd5b50565b60008135905061322c81613206565b92915050565b6000602082840312156132485761324761308f565b5b60006132568482850161321d565b91505092915050565b600073ffffffffffffffffffffffffffffffffffffffff82169050919050565b600061328a8261325f565b9050919050565b61329a8161327f565b82525050565b60006020820190506132b56000830184613291565b92915050565b6132c48161327f565b81146132cf57600080fd5b50565b6000813590506132e1816132bb565b92915050565b600080604083850312156132fe576132fd61308f565b5b600061330c858286016132d2565b925050602061331d8582860161321d565b9150509250929050565b6000806000606084860312156133405761333f61308f565b5b600061334e868287016132d2565b935050602061335f868287016132d2565b92505060406133708682870161321d565b9150509250925092565b600081519050919050565b600082825260208201905092915050565b6000819050602082019050919050565b6133af81613051565b82525050565b6133be8161327f565b82525050565b600082825260208201905092915050565b60006133e082613154565b6133ea81856133c4565b93506133fa818560208601613170565b6134038161319a565b840191505092915050565b600060c08301600083015161342660008601826133a6565b50602083015161343960208601826133b5565b50604083015161344c60408601826133b5565b506060830151848203606086015261346482826133d5565b915050608083015161347960808601826133a6565b5060a083015161348c60a08601826133a6565b508091505092915050565b60006134a3838361340e565b905092915050565b6000602082019050919050565b60006134c38261337a565b6134cd8185613385565b9350836020820285016134df85613396565b8060005b8581101561351b57848403895281516134fc8582613497565b9450613507836134ab565b925060208a019950506001810190506134e3565b50829750879550505050505092915050565b6000602082019050818103600083015261354781846134b8565b905092915050565b6000602082840312156135655761356461308f565b5b6000613573848285016132d2565b91505092915050565b600080fd5b600080fd5b7f4e487b7100000000000000000000000000000000000000000000000000000000600052604160045260246000fd5b6135be8261319a565b810181811067ffffffffffffffff821117156135dd576135dc613586565b5b80604052505050565b60006135f0613085565b90506135fc82826135b5565b919050565b600067ffffffffffffffff82111561361c5761361b613586565b5b6136258261319a565b9050602081019050919050565b82818337600083830152505050565b600061365461364f84613601565b6135e6565b9050828152602081018484840111156136705761366f613581565b5b61367b848285613632565b509392505050565b600082601f8301126136985761369761357c565b5b81356136a8848260208601613641565b91505092915050565b600080600080600060a086880312156136cd576136cc61308f565b5b600086013567ffffffffffffffff8111156136eb576136ea613094565b5b6136f788828901613683565b955050602086013567ffffffffffffffff81111561371857613717613094565b5b61372488828901613683565b945050604086013567ffffffffffffffff81111561374557613744613094565b5b61375188828901613683565b935050606086013567ffffffffffffffff81111561377257613771613094565b5b61377e88828901613683565b925050608061378f8882890161321d565b9150509295509295909350565b6137a58161311e565b81146137b057600080fd5b50565b6000813590506137c28161379c565b92915050565b600080604083850312156137df576137de61308f565b5b60006137ed858286016132d2565b92505060206137fe858286016137b3565b9150509250929050565b6000806040838503121561381f5761381e61308f565b5b600061382d8582860161321d565b925050602061383e8582860161321d565b9150509250929050565b600067ffffffffffffffff82111561386357613862613586565b5b61386c8261319a565b9050602081019050919050565b600061388c61388784613848565b6135e6565b9050828152602081018484840111156138a8576138a7613581565b5b6138b3848285613632565b509392505050565b600082601f8301126138d0576138cf61357c565b5b81356138e0848260208601613879565b91505092915050565b600080600080608085870312156139035761390261308f565b5b6000613911878288016132d2565b9450506020613922878288016132d2565b93505060406139338782880161321d565b925050606085013567ffffffffffffffff81111561395457613953613094565b5b613960878288016138bb565b91505092959194509250565b600081519050919050565b600082825260208201905092915050565b6000819050602082019050919050565b6139a18161311e565b82525050565b6000610120830160008301516139c060008601826133a6565b5060208301516139d360208601826133b5565b50604083015184820360408601526139eb82826133d5565b91505060608301518482036060860152613a0582826133d5565b91505060808301518482036080860152613a1f82826133d5565b91505060a0830151613a3460a08601826133a6565b5060c083015184820360c0860152613a4c82826133d5565b91505060e0830151613a6160e08601826133a6565b50610100830151613a76610100860182613998565b508091505092915050565b6000613a8d83836139a7565b905092915050565b6000602082019050919050565b6000613aad8261396c565b613ab78185613977565b935083602082028501613ac985613988565b8060005b85811015613b055784840389528151613ae68582613a81565b9450613af183613a95565b925060208a01995050600181019050613acd565b50829750879550505050505092915050565b60006020820190508181036000830152613b318184613aa2565b905092915050565b60008060408385031215613b5057613b4f61308f565b5b6000613b5e858286016132d2565b9250506020613b6f858286016132d2565b9150509250929050565b7f4e487b7100000000000000000000000000000000000000000000000000000000600052602260045260246000fd5b60006002820490506001821680613bc057607f821691505b602082108103613bd357613bd2613b79565b5b50919050565b7f4552433732313a20617070726f76616c20746f2063757272656e74206f776e6560008201527f7200000000000000000000000000000000000000000000000000000000000000602082015250565b6000613c3560218361315f565b9150613c4082613bd9565b604082019050919050565b60006020820190508181036000830152613c6481613c28565b9050919050565b7f4552433732313a20617070726f76652063616c6c6572206973206e6f7420746f60008201527f6b656e206f776e6572206f7220617070726f76656420666f7220616c6c000000602082015250565b6000613cc7603d8361315f565b9150613cd282613c6b565b604082019050919050565b60006020820190508181036000830152613cf681613cba565b9050919050565b7f4552433732313a2063616c6c6572206973206e6f7420746f6b656e206f776e6560008201527f72206f7220617070726f76656400000000000000000000000000000000000000602082015250565b6000613d59602d8361315f565b9150613d6482613cfd565b604082019050919050565b60006020820190508181036000830152613d8881613d4c565b9050919050565b7f4e487b7100000000000000000000000000000000000000000000000000000000600052603260045260246000fd5b7f457468657220746f6f206c6f7720666f72207075726368617365210000000000600082015250565b6000613df4601b8361315f565b9150613dff82613dbe565b602082019050919050565b60006020820190508181036000830152613e2381613de7565b9050919050565b7f4f7065726174696f6e204e6f7420416c6c6f7765642100000000000000000000600082015250565b6000613e6060168361315f565b9150613e6b82613e2a565b602082019050919050565b60006020820190508181036000830152613e8f81613e53565b9050919050565b7f536f72727921205468697320746f6b656e206973206e6f74206f6e2053616c6560008201527f2e00000000000000000000000000000000000000000000000000000000000000602082015250565b6000613ef260218361315f565b9150613efd82613e96565b604082019050919050565b60006020820190508181036000830152613f2181613ee5565b9050919050565b7f4e487b7100000000000000000000000000000000000000000000000000000000600052601160045260246000fd5b6000613f6282613051565b9150613f6d83613051565b9250828202613f7b81613051565b91508282048414831517613f9257613f91613f28565b5b5092915050565b7f4e487b7100000000000000000000000000000000000000000000000000000000600052601260045260246000fd5b6000613fd382613051565b9150613fde83613051565b925082613fee57613fed613f99565b5b828204905092915050565b600061400482613051565b915061400f83613051565b925082820390508181111561402757614026613f28565b5b92915050565b600061403882613051565b91507fffffffffffffffffffffffffffffffffffffffffffffffffffffffffffffffff820361406a57614069613f28565b5b600182019050919050565b60008190508160005260206000209050919050565b60006020601f8301049050919050565b600082821b905092915050565b6000600883026140d77fffffffffffffffffffffffffffffffffffffffffffffffffffffffffffffffff8261409a565b6140e1868361409a565b95508019841693508086168417925050509392505050565b6000819050919050565b600061411e61411961411484613051565b6140f9565b613051565b9050919050565b6000819050919050565b61413883614103565b61414c61414482614125565b8484546140a7565b825550505050565b600090565b614161614154565b61416c81848461412f565b505050565b5b8181101561419057614185600082614159565b600181019050614172565b5050565b601f8211156141d5576141a681614075565b6141af8461408a565b810160208510156141be578190505b6141d26141ca8561408a565b830182614171565b50505b505050565b600082821c905092915050565b60006141f8600019846008026141da565b1980831691505092915050565b600061421183836141e7565b9150826002028217905092915050565b61422a82613154565b67ffffffffffffffff81111561424357614242613586565b5b61424d8254613ba8565b614258828285614194565b600060209050601f83116001811461428b5760008415614279578287015190505b6142838582614205565b8655506142eb565b601f19841661429986614075565b60005b828110156142c15784890151825560018201915060208501945060208101905061429c565b868310156142de57848901516142da601f8916826141e7565b8355505b6001600288020188555050505b505050505050565b6000815461430081613ba8565b61430a818661315f565b94506001821660008114614325576001811461433b5761436e565b60ff19831686528115156020028601935061436e565b61434485614075565b60005b8381101561436657815481890152600182019150602081019050614347565b808801955050505b50505092915050565b600060808201905061438c600083018761305b565b614399602083018661305b565b81810360408301526143ab81856142f3565b90506143ba606083018461305b565b95945050505050565b7f4552433732313a20696e76616c696420746f6b656e2049440000000000000000600082015250565b60006143f960188361315f565b9150614404826143c3565b602082019050919050565b60006020820190508181036000830152614428816143ec565b9050919050565b7f4552433732313a2061646472657373207a65726f206973206e6f74206120766160008201527f6c6964206f776e65720000000000000000000000000000000000000000000000602082015250565b600061448b60298361315f565b91506144968261442f565b604082019050919050565b600060208201905081810360008301526144ba8161447e565b9050919050565b7f457468657220746f6f206c6f7720666f72206d696e74696e6721000000000000600082015250565b60006144f7601a8361315f565b9150614502826144c1565b602082019050919050565b60006020820190508181036000830152614526816144ea565b9050919050565b7f4f776e6572206973206e6f7420616c6c6f77656420746f204d696e74204e465460008201527f732e000000000000000000000000000000000000000000000000000000000000602082015250565b600061458960228361315f565b91506145948261452d565b604082019050919050565b600060208201905081810360008301526145b88161457c565b9050919050565b60006080820190506145d4600083018761305b565b6145e1602083018661305b565b81810360408301526145f381856131ab565b9050614602606083018461305b565b95945050505050565b600081905092915050565b600061462182613154565b61462b818561460b565b935061463b818560208601613170565b80840191505092915050565b60006146538284614616565b915081905092915050565b7f4e65772050726963652063616e6e6f74206265205a65726f0000000000000000600082015250565b600061469460188361315f565b915061469f8261465e565b602082019050919050565b600060208201905081810360008301526146c381614687565b9050919050565b7f596f7520617265206e6f7420746865206f776e6572206f662074686973204e4660008201527f54212c205472792070757263686173696e672069742e00000000000000000000602082015250565b600061472660368361315f565b9150614731826146ca565b604082019050919050565b6000602082019050818103600083015261475581614719565b9050919050565b60006147688285614616565b91506147748284614616565b91508190509392505050565b7f4f776e61626c653a206e6577206f776e657220697320746865207a65726f206160008201527f6464726573730000000000000000000000000000000000000000000000000000602082015250565b60006147dc60268361315f565b91506147e782614780565b604082019050919050565b6000602082019050818103600083015261480b816147cf565b9050919050565b7f4552433732313a207472616e736665722066726f6d20696e636f72726563742060008201527f6f776e6572000000000000000000000000000000000000000000000000000000602082015250565b600061486e60258361315f565b915061487982614812565b604082019050919050565b6000602082019050818103600083015261489d81614861565b9050919050565b7f4552433732313a207472616e7366657220746f20746865207a65726f2061646460008201527f7265737300000000000000000000000000000000000000000000000000000000602082015250565b600061490060248361315f565b915061490b826148a4565b604082019050919050565b6000602082019050818103600083015261492f816148f3565b9050919050565b600081905092915050565b50565b6000614951600083614936565b915061495c82614941565b600082019050919050565b600061497282614944565b9150819050919050565b7f536f6d657468696e672077656e742077726f6e67210000000000000000000000600082015250565b60006149b260158361315f565b91506149bd8261497c565b602082019050919050565b600060208201905081810360008301526149e1816149a5565b9050919050565b7f4f776e61626c653a2063616c6c6572206973206e6f7420746865206f776e6572600082015250565b6000614a1e60208361315f565b9150614a29826149e8565b602082019050919050565b60006020820190508181036000830152614a4d81614a11565b9050919050565b7f45524337323155524953746f726167653a2055524920736574206f66206e6f6e60008201527f6578697374656e7420746f6b656e000000000000000000000000000000000000602082015250565b6000614ab0602e8361315f565b9150614abb82614a54565b604082019050919050565b60006020820190508181036000830152614adf81614aa3565b9050919050565b7f4552433732313a20617070726f766520746f2063616c6c657200000000000000600082015250565b6000614b1c60198361315f565b9150614b2782614ae6565b602082019050919050565b60006020820190508181036000830152614b4b81614b0f565b9050919050565b7f4552433732313a207472616e7366657220746f206e6f6e20455243373231526560008201527f63656976657220696d706c656d656e7465720000000000000000000000000000602082015250565b6000614bae60328361315f565b9150614bb982614b52565b604082019050919050565b60006020820190508181036000830152614bdd81614ba1565b9050919050565b6000614bef82613051565b9150614bfa83613051565b9250828201905080821115614c1257614c11613f28565b5b92915050565b600081519050919050565b600082825260208201905092915050565b6000614c3f82614c18565b614c498185614c23565b9350614c59818560208601613170565b614c628161319a565b840191505092915050565b6000608082019050614c826000830187613291565b614c8f6020830186613291565b614c9c604083018561305b565b8181036060830152614cae8184614c34565b905095945050505050565b600081519050614cc8816130c5565b92915050565b600060208284031215614ce457614ce361308f565b5b6000614cf284828501614cb9565b91505092915050565b7f4552433732313a206d696e7420746f20746865207a65726f2061646472657373600082015250565b6000614d3160208361315f565b9150614d3c82614cfb565b602082019050919050565b60006020820190508181036000830152614d6081614d24565b9050919050565b7f4552433732313a20746f6b656e20616c7265616479206d696e74656400000000600082015250565b6000614d9d601c8361315f565b9150614da882614d67565b602082019050919050565b60006020820190508181036000830152614dcc81614d90565b905091905056fea26469706673582212208e99763b24e8f256ed50f89bcb3cff13e830a18411e747f3b3e0cbad0a1fd70664736f6c63430008110033",
  "linkReferences": {},
  "deployedLinkReferences": {}
}